:100000000C943D0C0C94860C0C94860C0C94860C71
:100010000C94860C0C94860C0C94860C0C94860C18
:100020000C94860C0C94860C0C94512C0C94282D5A
:100030000C942E230C94860C0C94860C0C94860C39
:100040000C94860C0C94860C0C94860C0C94860CE8
:100050000C94860C0C9496230C94860C0C94860CB1
:100060000C94860C0C94860C0C94860C0C94860CC8
:100070000C94860C0C94860C0C94860C0C94860CB8
:100080000C94860C0C94860C0C94860C0C94860CA8
:100090000C94860C0C94860C01E10127022702E1E6
:1000A00000290000003A003B003C003D0000003EFB
:1000B000003F00400041004200430044004500462C
:1000C00000470048000000000000000000000000A1
:1000D0000000000000000000000000000000000020
:1000E0000000000000000000000000000000000010
:1000F0000000000000000000000000000035001EAD
:10010000001F0020002100220023002400250026DB
:100110000027002D002E0000002A0049004A004B55
:1001200000000053000030540055002B0000001464
:10013000001A000800150017001C0018000C00121F
:100140000013002F00300028004C004D004E00002E
:10015000005F0060006100560039000000040016D6
:1001600000070009000A000B000D000E000F00330D
:100170000034003100000000000000000000005CBE
:10018000005D005E005700E10038021D001B000604
:10019000001900050011001000360037003800007B
:1001A00000E1000000000052000000000059005A69
:1001B000005B005800E000E3000000E200000000E7
:1001C000002C00000000000000E600E700000065D1
:1001D00000E400500051004F000000620000006386
:1001E000000000007000000100010001000100009B
:1001F00000010001000100010001000100010001F7
:1002000000010001000100000000000000000000EB
:1002100000000000000000000000000000000000DE
:1002200000000000000000000000000000000000CE
:1002300000000000000000000000000000000001BD
:1002400000010001000100010001000100010001A6
:100250000001000100010001000000010001000197
:100260000001000000010001000100010001000088
:100270000001000100010001000100010001000176
:100280000001000100010001000100010001000166
:100290000000000100010001000100010000000158
:1002A0000001000100010001000100010001000146
:1002B000000100010001000000000000000000003B
:1002C0000001000100010001000100010001000126
:1002D0000001000100010001000100010001000116
:1002E000000000010000000000010000000000010B
:1002F00000010001000100010001000000010000F8
:1003000000000001000000000000000100010000EA
:1003100000010001000100010001000000010000D7
:1003200000010000000100000001000100010001C7
:1003300000000001000100010001000100010001B6
:1003400000010001000100010000000000000000A9
:10035000000000000000000000000000000000009D
:10036000000000000000000000000000000000008D
:10037000000000000000000000000000000000007D
:100380000001000100010001000100010001000165
:100390000001000100010001000100000001000156
:1003A0000001000100000001000100010001000146
:1003B0000000000100010001000100010001000136
:1003C0000001000100010001000100010001000125
:1003D0000001000000010001000100010001000017
:1003E0000001000100010001000100010001000105
:1003F00000010001000100010000000000000000F9
:1004000000000001000100010001000100010001E5
:1004100000010001000100010001000100010001D4
:1004200000010000000100000000000100000000C9
:1004300000010001000100010001000100000001B5
:1004400000000000000100000000000000010001A9
:100450000000000100010001000100010000000196
:100460000000000100000001000000010001000187
:100470000001000000010001000100010001000175
:100480000001000100010001000100000000000067
:10049000000000000000000000000000000000005C
:1004A000000000000000000000000000000000004C
:1004B000000000000000000000000000000000003C
:1004C0000000000100010001000100010001000125
:1004D0000001000100010001000100010000000115
:1004E0000001000100010000000100010001000105
:1004F00000010000000100010001000100010001F5
:1005000000010001000100010001000100010001E3
:1005100000010001000000010001000100010001D4
:1005200000000001000100010001000100010001C4
:1005300000010001000100010001000000000000B6
:1005400000000000000100010001000100010001A5
:100550000001000100010001000100010001000193
:100560000001000100000001000000000001000087
:100570000000000100010001000100010001000075
:100580000001000000000001000000000000000168
:100590000001000000010001000100010001000055
:1005A0000001000000010000000100000001000146
:1005B0000001000100000001000100010001000134
:1005C0000001000100010001000100010000000025
:1005D000000000000000000000000000000000001B
:1005E000000000000000000000000000000000000B
:1005F00000000000000000000000000000000000FB
:1006000000000000000100010001000100010001E4
:1006100000010001000100010001000100010000D3
:1006200000010001000100010000000100010001C3
:1006300000010001000000010001000100010001B3
:1006400000010001000100010001000100010001A2
:100650000001000100010000000100010001000193
:100660000001000000010001000100010001000183
:100670000001000100010001000100010000000074
:100680000000000000000001000100010001000165
:100690000001000100010001000100010001000152
:1006A0000001000100010000000100000000000145
:1006B0000000000000010001000100010001000134
:1006C0000000000100000000000100000000000028
:1006D0000001000100000001000100010001000113
:1006E0000000000100000001000000010000000106
:1006F00000010001000100000001000100010001F3
:1007000000010001000100010001000100010000E2
:1007100000000000000000000000000000000000D9
:1007200000000000000000000000000000000000C9
:1007300000000000000000000000000000000000B9
:1007400000000000000000010001000100010001A4
:100750000001000100010001000100010001000191
:100760000000000100010001000100000001000183
:100770000001000100010000000100010001000172
:100780000001000100010001000100010001000161
:100790000001000100010001000000010001000152
:1007A0000001000100000001000100010001000142
:1007B0000001000100010001000100010001000032
:1007C0000000000000000000000100010001000125
:1007D0000001000100010001000100010001000111
:1007E0000001000100010001000000010000000004
:1007F00000010000000000010001000100010001F3
:1008000000010000000100000000000100000000E5
:1008100000000001000100000001000100010001D2
:1008200000010000000100000001000000010000C4
:1008300000010001000100010000000100010001B1
:1008400000010001000100010001000100010001A0
:100850000000000000000000000000000000000098
:100860000000000000000000000000000000000088
:100870000000000000000000000000000000000078
:100880000000000000000000000100010001000164
:100890000001000100010001000100010001000150
:1008A0000001000000010001000100010000000142
:1008B0000001000100010001000000010001000131
:1008C0000001000100010001000100010001000120
:1008D0000001000100010001000100000001000111
:1008E0000001000100010000000100010001000101
:1008F00000010001000100010001000100010001F0
:1009000000000000000000000000000100010001E4
:1009100000010001000100010001000100010001CF
:1009200000010001000100010001000000010000C1
:1009300000000001000000000001000100010001B2
:1009400000010001000000010000000000010000A3
:100950000000000000010001000000010001000192
:100960000001000100000001000000010000000182
:100970000000000100010001000100000001000171
:10098000000100010001000100010001000100015F
:100990000001000000000000000000000000000056
:1009A0000000000000000000000000000000000047
:1009B0000000000000000000000000000000000037
:1009C0000000000000000000000000010001000124
:1009D000000100010001000100010001000100010F
:1009E0000001000100000001000100010001000001
:1009F00000010001000100010001000000010001F0
:100A000000010001000100010001000100010001DE
:100A100000010001000100010001000100000001CF
:100A200000010001000100010000000100010001BF
:100A300000010001000100010001000100010001AE
:100A400000010000000000000000000000010001A3
:100A5000000100010001000100010001000100018E
:100A6000000100010001000100010001000000017F
:100A70000000000000010000000000010001000172
:100A80000001000100010000000100000000000161
:100A90000000000000000001000100000001000152
:100AA0000001000100010000000100000001000041
:100AB0000001000000010001000100010000000130
:100AC000000100010001000100010001000100011E
:100AD0000001000100000000000000000000000014
:100AE0000000000000000000000000000000000006
:100AF00000000000000000000000000000000000F6
:100B000000000000000000000000000000010001E3
:100B100000010001000100010001000100010001CD
:100B200000010001000100000001000100010001BE
:100B300000000001000100010001000100000001AF
:100B4000000100010001000100010001000100019D
:100B5000000100010001000100010001000100008E
:100B6000000100010001000100010000000100017E
:100B7000000100010001000100010001000100016D
:100B80000001000100000000000000000000000162
:100B9000000100010001000100010001000100014D
:100BA000000100010001000100010001000100003E
:100BB0000001000000000001000000000001000131
:100BC0000001000100010001000000010000000020
:100BD0000001000000000000000100010000000111
:100BE00000010001000100010000000100000001FF
:100BF00000000001000000010001000100010000F0
:100C000000010001000100010001000100010001DC
:100C100000010001000100000000000000000000D1
:100C200000000000000000000000000000000000C4
:100C300000000000000000000000000000000000B4
:100C400000000000000000000000000000000001A3
:100C5000000100010001000100010001000100018C
:100C6000000100010001000100000001000100017D
:100C7000000100000001000100010001000100006E
:100C8000000100010001000100010001000100015C
:100C9000000100010001000100010001000100014C
:100CA000000000010001000100010001000000013E
:100CB000000100010001000100010001000100012C
:100CC0000001000100010000000000000000000021
:100CD000000100010001000100010001000100010C
:100CE00000010001000100010001000100010001FC
:100CF00000000001000000000001000000000001F1
:100D000000010001000100010001000000010000DD
:100D100000000001000000000000000100010000D0
:100D200000010001000100010001000000010000BD
:100D300000010000000100000001000100010001AD
:100D4000000000010001000100010001000100019C
:100D5000000100010001000100000000000000008F
:100D60000000000000000000000000000000000083
:100D70000000000000000000000000000000000073
:100D80000000000000000000000000000000000063
:100D9000000100010001000100010001000100014B
:100DA000000100010001000100010000000100013C
:100DB000000100010000000100010001000100012C
:100DC000000000010001000100010001000100011C
:100DD000000100010001000100010001000100010B
:100DE00000010000000100010001000100010000FD
:100DF00000010001000100010001000100010001EB
:100E000000010001000100010000000000000000DE
:100E100000000001000100010001000100010001CB
:100E200000010001000100010001000100010001BA
:100E300000010000000100000000000100000000AF
:100E4000000100010001000100010001000000019B
:100E5000000000000001000000000000000100018F
:100E6000000000010001000100010001000000017C
:100E7000000000010000000100000001000100016D
:100E8000000100000001000100010001000100015B
:100E9000000100010001000100010000000000004D
:100EA0000000000000000000000000000000000042
:100EB0000000000000000000000000000000000032
:100EC0000000000000000000000000000000000022
:100ED000000000010001000100010001000100010B
:100EE00000010001000100010001000100000001FB
:100EF00000010001000100000001000100010001EB
:100F000000010000000100010001000100010001DA
:100F100000010001000100010001000100010001C9
:100F200000010001000000010001000100010001BA
:100F300000000001000100010001000100010001AA
:100F4000000100010001000100010000000000009C
:100F5000000000000001000100010001000100018B
:100F60000001000100010001000100010001000179
:100F7000000100010000000100000000000100006D
:100F8000000000010001000100010001000100005B
:100F9000000100000000000100000000000000014E
:100FA000000100000001000100010001000100003B
:100FB000000100000001000000010000000100012C
:100FC000000100010000000100010001000100011A
:100FD000000100010001000100010001000000000B
:100FE0000000000000000000000000000000000001
:100FF00000000000000000000000000000000000F1
:1010000000000000000000000000000000000000E0
:1010100000000000000100010001000100010001CA
:1010200000010001000100010001000100010000B9
:1010300000010001000100010000000100010001A9
:101040000001000100000001000100010001000199
:101050000001000100010001000100010001000188
:101060000001000100010000000100010001000179
:101070000001000000010001000100010001000169
:10108000000100010001000100010001000000005A
:10109000000000000000000100010001000100014B
:1010A0000001000100010001000100010001000138
:1010B000000100010001000000010000000000012B
:1010C000000000000001000100010001000100011A
:1010D000000000010000000000010000000000000E
:1010E00000010001000000010001000100010001F9
:1010F00000000001000000010000000100000001EC
:1011000000010001000100000001000100010001D8
:1011100000010001000100010001000100010000C8
:1011200000000000000000000000000000000000BF
:1011300000000000000000000000000000000000AF
:10114000000000000000000000000000000000009F
:10115000000000000000000100010001000100018A
:101160000001000100010001000100010001000177
:101170000000000100010001000100000001000169
:101180000001000100010000000100010001000158
:101190000001000100010001000100010001000147
:1011A0000001000100010001000000010001000138
:1011B0000001000100000001000100010001000128
:1011C0000001000100010001000100010001000018
:1011D000000000000000000000010001000100010B
:1011E00000010001000100010001000100010001F7
:1011F00000010001000100010000000100000000EA
:1012000000010000000000010001000100010001D8
:1012100000010000000100000000000100000000CB
:1012200000000001000100000001000100010001B8
:1012300000010000000100000001000000010000AA
:101240000001000100010001000000010001000197
:101250000001000100010001000100010001000186
:10126000000000000000000000000000000000007E
:10127000000000000000000000000000000000006E
:10128000000000000000000000000000000000005E
:10129000000000000000000000010001000100014A
:1012A0000001000100010001000100010001000136
:1012B0000001000000010001000100010000000128
:1012C0000001000100010001000000010001000117
:1012D0000001000100010001000100010001000106
:1012E00000010001000100010001000000010001F7
:1012F00000010001000100000001000100010001E7
:1013000000010001000100010001000100010001D5
:1013100000000000000000000000000100010001CA
:1013200000010001000100010001000100010001B5
:1013300000010001000100010001000000010000A7
:101340000000000100000000000100010001000198
:101350000001000100000001000000000001000089
:101360000000000000010001000000010001000178
:101370000001000100000001000000010000000168
:101380000000000100010001000100000001000157
:101390000001000100010001000100010001000145
:1013A000000100000000000000000000000000003C
:1013B000000000000000000000000000000000002D
:1013C000000000000000000000000000000000001D
:1013D000000000000000000000000001000100010A
:1013E00000010001000100010001000100010001F5
:1013F00000010001000000010001000100010000E7
:1014000000010001000100010001000000010001D5
:1014100000010001000100010001000100010001C4
:1014200000010001000100010001000100000001B5
:1014300000010001000100010000000100010001A5
:101440000001000100010001000100010001000194
:101450000001000000000000000000000001000189
:101460000001000100010001000100010001000174
:101470000001000100010001000100010000000165
:101480000000000000010000000000010001000158
:101490000001000100010000000100000000000147
:1014A0000000000000000001000100000001000138
:1014B0000001000100010000000100000001000027
:1014C00000643214643214783C1E1E140A050000B5
:1014D00000000101010202030405050607090A0BC9
:1014E0000C0E0F1112141517191B1D1F212325286F
:1014F0002A2C2F313436393B3E414346494C4F521A
:1015000055585A5D6164676A6D707376797C7F8324
:1015100086898C8F9295989B9EA2A5A7AAADB0B301
:10152000B6B9BCBEC1C4C6C9CBCED0D3D5D7DADC20
:10153000DEE0E2E4E6E8EAEBEDEEF0F1F3F4F5F6F6
:10154000F8F9FAFAFBFCFDFDFEFEFEFFFFFFFFFFD0
:10155000FFFFFEFEFEFDFDFCFBFAFAF9F8F6F5F4DE
:10156000F3F1F0EEEDEBEAE8E6E4E2E0DEDCDAD718
:10157000D5D3D0CECBC9C6C4C1BEBCB9B6B3B0AD4D
:10158000AAA7A5A29E9B9895928F8C898683807C22
:10159000797673706D6A6764615D5A5855524F4C25
:1015A000494643413E3B393634312F2C2A282523E6
:1015B000211F1D1B1917151412110F0E0C0B0A09F0
:1015C00007060505040302020101010000000000F6
:1015D00000000001010101010101010102020202FA
:1015E00002020202020303030303030303040404CD
:1015F0000404040505050505060606060607070793
:1016000007080808080909090A0A0A0A0B0B0B0C43
:101610000C0C0D0D0D0E0E0F0F0F101011111112DD
:101620001213131414151516161717181819191A5A
:101630001A1B1C1C1D1D1E1F1F20202122222324BB
:10164000252526272728292A2B2B2C2D2E2F2F30F6
:10165000313233343536363738393A3B3C3D3E3F0C
:101660004041424344464748494A4B4C4D4F5051F4
:101670005253555657585A5B5C5E5F6062636466AE
:1016800067696A6C6D6E707173747678797B7C7E35
:101690008081838486888A8B8D8F91929496989A84
:1016A0009B9D9FA1A3A5A7A9ABADAFB1B3B5B7B99A
:1016B000BBBDBFC1C4C6C8CACCCFD1D3D6D8DADC73
:1016C000DFE1E4E6E8EBEDF0F2F5F7FAFCFF1203F8
:1016D0006B006500790062006F00610072006400B9
:1016E0000000160371006D006B0062007500690058
:1016F0006C00640065007200000004030904090224
:101700006D00040100A0FA090400000103010100BA
:101710000921110100012240000705810308000A88
:101720000904010001030102000921110100012245
:101730004D000705820308000A09040200010300A6
:10174000000009211101000122360007058303086A
:10175000000A09040300010300000009211101002F
:101760000122390007058403200001120110010045
:10177000000008EDFE6060010001020001050109A2
:1017800006A101050719E029E7150025019508754F
:101790000181020508190129059505750191029538
:1017A00001750391010507190029F7150025019519
:1017B000F875018102C005010980A10185021601A9
:1017C000002603001A81002A83007510950181000C
:1017D000C0050C0901A1018503160100269C021A0F
:1017E00001002A9C02751095018100C005010902C3
:1017F000A1010901A100050919012905150025010B
:101800009505750181029501750381010501093076
:1018100009311581257F95027508810609381581E2
:10182000257F950175088106050C0A38021581256A
:101830007F950175088106C0C005010906A1010553
:101840000719E029E7150025019508750181029522
:101850000175088101050819012905950575019192
:10186000029501750391010507190029FF1500264E
:10187000FF00950675088100C00011241FBECFEF40
:10188000D0E2DEBFCDBF04B603FE27C08091E502E3
:101890009091E602A091E702B091E8028730904B68
:1018A000A740B04BD1F41092E5021092E6021092DC
:1018B000E7021092E80214BE84B7877F84BF0FB698
:1018C000F894A895809160008861809360001092E0
:1018D00060000FBEE0E0F8EF099511E0A0E0B1E094
:1018E000E4E1F1E600E00BBF02C007900D92A634E0
:1018F000B107D9F722E0A6E4B1E001C01D92A53EF0
:10190000B207E1F70E949F290C9488300C940000E4
:10191000611107C0FC018281882319F088E990E0F9
:10192000089590E080E008950895089581E0089575
:1019300080FF13C0699A719881FF11C0689A7098EE
:1019400082FF0FC0269A2E9883FF0DC06D9A75985E
:1019500084FF0BC06E9A769808956998ECCF6898CA
:10196000EECF2698F0CF6D98F2CF6E98F4CF81E04D
:1019700008950C94960C0E948B1B2FEF84E39CE03F
:10198000215080409040E1F700C000000C94BB2340
:10199000FF920F931F93CF93DF938C01FC01C081C3
:1019A000D1818091CD01811148C08281882309F4C1
:1019B0003FC0CE010E94F220F82E682FCE010E9477
:1019C0009820BE018F2D0E94A20EEC01B8010E944A
:1019D000B90C882309F478C0B801CE010E94D21056
:1019E000882309F471C0C633F0E7DF0709F484C027
:1019F000C0F5C53190E7D90728F5C230E0E7DE072A
:101A000008F099C0C115F0E7DF0709F458C0C130EC
:101A1000D04709F460C081E0809348018093490178
:101A2000C801DF91CF911F910F91FF900C94B70CDB
:101A3000CE010E94C720F82EC4CFCE010E94F22012
:101A4000BE01C1CFC43390E7D90709F44EC0C533F6
:101A5000D04709F7F80182818823B1F10E94F5147B
:101A600033C0CA33F0E7DF0709F457C070F4F80158
:101A70008281C833F0E7DF0709F44AC008F443C0A5
:101A8000882311F10E9439141FC0CC33E0E7DE0730
:101A900009F4D5C008F448C0CD33D04709F0BBCF16
:101AA000F8018281882309F4F1C0109249010E9453
:101AB0006023909347018093460180E2CDC0F801F6
:101AC000828181110E94BB0C80E0DF91CF911F9138
:101AD0000F91FF900895F80182818823A9F38091E6
:101AE0009C02816080939C02EFCFF8018281882361
:101AF00059F30E94FF14E8CFF8018281882321F373
:101B00000E94EA13E1CF8823F9F20E940214DCCF8D
:101B10008823D1F20E942114D7CFF8018281882333
:101B200099F20E945114D0CFF8018281882361F28A
:101B30000E946914C9CFF8018281882309F470CF0B
:101B40000E94AF22811102C00E9489220E94CC22F1
:101B500090E09093D6028093D502FE01E350F047C7
:101B60008091D5028160E231F105C8F4E654F24F6C
:101B70000C943230CC0DD80DDC0DE00DE40DE80DE9
:101B8000EC0DF00DF40DF80DFC0D000E040E080E1A
:101B90000C0E100E140E180E8091D50282608093E8
:101BA000D5028091D5020E94D0220E948B1B8CCF3F
:101BB0008091D5028460F3CF8091D5028860EFCF09
:101BC0008091D5028061EBCF8091D5028062E7CF12
:101BD0008091D5028064E3CF8091D5028068DFCF09
:101BE0008091D5028460EACF8091D5028E7FD7CFD5
:101BF0008091D5028D7FD3CF8091D5028B7FCFCFBF
:101C00008091D502877FCBCF8091D5028F7EC7CFC1
:101C10008091D5028F7DC3CF8091D5028F7BBFCFBE
:101C20008091D5028F77BBCF8091D5028B7FEACF91
:101C30009091D502892F97FB87F98058B0CFF80192
:101C40008281882361F0109248010E946023909362
:101C500047018093460182E00E94F51835CF8091BC
:101C6000480181110FC080914601909147010E9467
:101C70006C23883C910530F486E20E94CA1786E204
:101C80000E94A61882E00E94FC181ECF8091490194
:101C900081110FC080914601909147010E946C23F1
:101CA000883C910530F487E20E94CA1787E20E94BF
:101CB000A61880E2E8CF0C942311279A2F988FEF73
:101CC0009FEF90938700809386008AE08093800046
:101CD00089E1809381000C9458270E945D0E0C943A
:101CE00021112F9881110AC080918000877F8093F5
:101CF000800010928D0010928C000895813061F464
:101D0000809180008860809380008FEF9FEF909398
:101D10008D0080938C00089590918000986090933E
:101D2000800021E030E0281B31098FEF9FEF02C0D7
:101D3000969587952A95E2F7EACF0C94980C0C9427
:101D40009D0E0895972F70E027E1929F600D711D01
:101D50001124FB0191EA899FE00DF11D1124EE0F82
:101D6000FF1FEF55FF4F859194910895FC01EE0FF1
:101D7000FF1FEF53FB4E8591949108950E94A20E90
:101D80000E945110811520E5920708F040C081158E
:101D900030E4930708F0FAC0883E910518F5803EBC
:101DA000910508F07DC1883A910580F4853A910546
:101DB00008F087C08130910509F472C120F08430A9
:101DC000910508F06DC190E080E008958D3B91058C
:101DD00008F482C0803C9105B0F3805C91090E94B8
:101DE000B60E0895811540E2940750F4811521E064
:101DF000920708F055C1803F910528F3906508953A
:101E0000811530E3930708F0BEC09F70E8CF8115BD
:101E100045E5940760F5811524E5920708F0E5C0D3
:101E2000811532E5930750F4811541E5940708F4D4
:101E3000B0C0982F8827816F906A0895282F269523
:101E40002695AC01437055278115934508F0BEC017
:101E500081E090E002C0880F991F4A95E2F740E2C6
:101E6000249F90011124822B932B9C68089580332A
:101E700040E7940798F4803220E7920708F0BFC04B
:101E8000811536E5930708F4B5C09C0130569F7064
:101E90002115304108F097CF90620895813320E7F3
:101EA000920709F4B3C008F4AEC0823340E7940748
:101EB00009F4AFC08333904709F085CF80E093EDFC
:101EC0000895853A910509F4A7C0863A910509F06D
:101ED000A6C082E890E40895883A910509F4A2C06A
:101EE000893A910509F4A1C08A3A910509F4A0C084
:101EF0008B3A910509F49FC08C3A910509F49EC074
:101F00008B3B910509F49DC08C3B910509F49CC065
:101F10008D3A910509F49BC0803B910509F49AC064
:101F20008E3A910509F499C08F3A910509F498C049
:101F3000813B910509F497C0823B910509F496C055
:101F4000833B910509F495C0843B910509F494C045
:101F5000853B910509F493C0863B910509F492C035
:101F6000873B910509F491C0883B910509F490C025
:101F7000893B910509F48FC08A3B910509F48EC015
:101F800080E094E408959927906C08959F70906A7A
:101F900008959C0154E0369527955A95E1F7922FC4
:101FA0009370482F437021E030E002C0220F331FAE
:101FB0004A95E2F73C68392B86958695837040E216
:101FC000849FC0011124822B932B089581E090E01F
:101FD00002C0880F991F4A95E2F740E2249F9001C2
:101FE0001124822B932B9A680895982F8827846F49
:101FF000906A0895982F882788279F714DCF805227
:102000009047946D089580E091ED089580E090ED03
:10201000089580E092ED089581E890E4089583E8C2
:1020200090E4089582EE94E4089589EE94E408958E
:102030008AEE94E4089585EB94E4089586EB94E4A5
:10204000089583EB94E4089584EB94E4089587EB7A
:1020500094E408958CEC94E408958DEC94E4089550
:1020600083E895E408958AE895E4089582E995E483
:10207000089584E995E4089581E296E4089583E261
:1020800096E4089584E296E4089585E296E408953E
:1020900086E296E4089587E296E408958AE296E45B
:1020A00008958238910549F1B0F48133910509F41E
:1020B0005CC048F48932910509F452C08A32910516
:1020C00009F458C008958533910509F444C0893353
:1020D000910599F00895833E910531F138F4803EE1
:1020E000910591F0823E9105B1F00895863E9105EB
:1020F00011F1873E910541F108952091D502237099
:10210000C9F080EE90E008952091D50220FF12C022
:1021100089E390E008952091D50222FF0BC024FFAF
:102120002EC090E080E008952091D50222FD2AC0C3
:1021300024FDF7CF08952091D50223FFFBCF24FD86
:10214000F0CF87EE90E008952091D50223FFF0CFE5
:1021500086EE90E008952091D50225FD16C00895E1
:102160002091D50225FD14C008952091D50226FDA9
:1021700012C008952091D50226FD10C0089583EE67
:1021800090E0089582EE90E0089589E290E008954D
:1021900085E390E008958AE290E0089581E390E07D
:1021A000C9CF08950F931F93CF938C01FB018281B8
:1021B000811106C0C1E08C2FCF911F910F9108951E
:1021C000C0915701C11125C00531104799F70E94F0
:1021D000D11081E0809357010E94602390935601B3
:1021E0008093550110924A0110924C0110924B01BC
:1021F00010924E0110924D011092500110924F0119
:1022000010925201109251011092540110925301F8
:10221000D2CF80915501909156010E946C23883C49
:10222000910540F680914A01E82FF0E0EE0FFF1F84
:10223000E55BFE4F118300838F5F80934A01C0E00E
:10224000BACF0C94940C0C94950C85B7806885BF1C
:1022500085B7806885BFABE2B1E061E070E08D9149
:10226000E82FE295EF70F0E041A18F709B0101C073
:10227000220F8A95EAF7922F9095942391A382A139
:10228000822B82A381E0A233B80749F7A4E1B1E031
:1022900061E070E08D91E82FE295EF70F0E041A1F0
:1022A0008F709B0101C0220F8A95EAF7922F9095BB
:1022B000942391A382A1822B82A381E0AB32B80741
:1022C00049F7E4E7F1E0A8E5B1E080E991E0119297
:1022D0001192119211921D921D921D921D928E17B4
:1022E0009F07A9F70C946D0E2F923F924F925F9229
:1022F0006F927F928F929F92AF92BF92CF92DF9216
:10230000EF92FF920F931F93CF93DF93CDB7DEB77A
:102310002C970FB6F894DEBF0FBECDBF88E5882E90
:1023200081E0982E2BE231E03A83298398868F82D0
:1023300022242394312CC12CD12C7601C394AA24BD
:10234000A394AF81B8854D905D906D907C9013976C
:10235000FD011082118212821382A981BA818D91AE
:10236000BA83A983E82FE295EF70F0E091A18F7016
:10237000910102C0220F331F8A95E2F73C832B8321
:10238000822F892B81A382A1B22EB0948B2182A3AC
:1023900030EA3A95F1F744E151E05E834D8390E0F5
:1023A00080E0AD81BE813D91BE83AD83A32FA29518
:1023B000AF70B0E090960C91AF81B8854D915D9172
:1023C0006D917C9149875A876B877C873F70A1010B
:1023D00002C0440F551F3A95E2F79A01202309F0F5
:1023E00081C0B701A601082E04C0440F551F661F07
:1023F000771F0A94D2F78A019B0149855A856B851C
:102400007C85402B512B622B732BAF81B8854D936C
:102410005D936D937C93139701968731910509F035
:10242000C0CF81A1B822B1A282A1BB818B2B82A394
:10243000EF81F88580819181A281B3814816590688
:102440006A067B0641F0A09290010E94602390935F
:102450009201809391012F8138852C5F3F4F3887FF
:102460002F8349815A814253514009F06ACF8091AC
:1024700090018823D9F080919101909192010E945E
:102480006C23069798F0E4E7F1E084E791E0D4014B
:102490004D915D916D917D914D014193519361936A
:1024A00071938A179B0799F7109290010E945B0E17
:1024B00081E02C960FB6F894DEBF0FBECDBFDF9142
:1024C000CF911F910F91FF90EF90DF90CF90BF9031
:1024D000AF909F908F907F906F905F904F903F90C4
:1024E0002F90089500E010E0980187CF94E0899F35
:1024F000F0011124EC58FE4F60817181828193813B
:102500000895089535B1242F2095232335B1432B09
:102510003FB7F894FC01680F791FE617F70711F42D
:102520003FBF0895819198E045B9000000C087FF42
:1025300025B9880F000000C000C000C025B900C048
:102540009A9591F7EACF24B1242B24B99B01220F4D
:10255000331F620F731F0E94821287EC90E0019775
:10256000F1F700C00000089540E20C94A312CF924E
:10257000DF92EF92FF920F931F93CF93DF93E901C6
:10258000662309F466C0E42EF12CEFEFF0E0E61BC1
:10259000F109EE9D8001EF9D100DFE9D100D11249F
:1025A000212FE12FFF27EE1AFF0A5CE3C52ED12C65
:1025B000B6010E940A30FB01BC01E69EC001E79E05
:1025C000900DF69E900D1124B6010E940A30E23063
:1025D000F10589F168F4812F262F210F309781F0C2
:1025E000242F461B319761F080E020E040E008C0D6
:1025F000E430F10551F128F1842F861B3597A1F7BE
:10260000E42FF0E0E253FA4E4491E22FF0E0E2537F
:10261000FA4E9491E82FF0E0E253FA4EE4914983A8
:102620009883EA83DF91CF911F910F91FF90EF90F4
:10263000DF90CF900895862F810FE42F412F2E2F0A
:10264000DFCFE42FE61B842FF9CF842F462F410FD5
:10265000D7CF842F242FD4CF88E090E00C9448303B
:10266000AB01BC0188E090E00C946630E9ECF2E04C
:1026700083E080831092CA028FEF8283838360910C
:10268000C9027091CA028091CB029091CC020C9445
:10269000301370E060E081ED92E00C94B412EF92A0
:1026A000FF920F931F93CF93DF9300D01F92CDB76C
:1026B000DEB7182FE92EF62E042F8091C9029091D3
:1026C000CA02A091CB02B091CC028093CD0290932C
:1026D000CE02A093CF02B093D0028091C90280FFB6
:1026E0001CC09E012F5F3F4F812F9E2D0E94B7126D
:1026F0008091CD0210FB87F98093CD0216958091D1
:10270000CE028078812BE0FA87F98093CE02F09296
:10271000CF020093D0020E9449130F900F900F90A8
:10272000DF91CF911F910F91FF90EF9008950F933C
:102730001F93CF93DF93EC01062F142F9091C902C2
:1027400090FF43C0892F8E77823021F5CE010E9401
:102750004F138091C902C0FB87F98093C902C695C7
:102760008091CA028078C82BD0FBC7F9C093CA02F7
:102770000093CB021093CC026091C9027091CA02FF
:102780008091CB029091CC02DF91CF911F910F915C
:102790000C943013892F86958F732EE3280F2F7397
:1027A000243018F41091CC02D4CF865C8F7389301A
:1027B00080F6991F9927991FD091CA02CD2FCC0F6F
:1027C000C92BD7FBDD27D0F9C4CFDF91CF911F9163
:1027D0000F910895E9ECF2E02081221F2227221FA9
:1027E0003091CA02432F440F842F822B37FB992745
:1027F00090F9089668E671E00E941E30438162817C
:102800000C9497132091C902221F2227221F309176
:10281000CA02432F440F842F822B37FB992790F94C
:102820008830910540F4805A9E4F4091CC026091CF
:10283000CB020C949713089768E671E00E941E3053
:10284000F4CF6091CB02683F90F4685F8091C90239
:10285000881F8827881F9091CA02292F220F97FB73
:10286000992790F94091CC02822B0C9497136FEF2B
:10287000EDCF6091CB02683090F068508091C90232
:10288000881F8827881F9091CA02292F220F97FB43
:10289000992790F94091CC02822B0C94971360E019
:1028A000EDCF4091CC02483F90F4485F8091C9023F
:1028B000881F8827881F9091CA02292F220F97FB13
:1028C000992790F96091CB02822B0C9497134FEFCC
:1028D000EDCF4091CC02483090F048508091C90231
:1028E000881F8827881F9091CA02292F220F97FBE3
:1028F000992790F96091CB02822B0C94971340E0BA
:10290000EDCF9091C90290FF3BC09178811126C014
:1029100092609093C9026091C9027091CA0280913D
:10292000CB029091CC020E9430138091C902982F63
:102930009E779230D9F41092A801881F8827881FAB
:102940009091CA02292F220F97FB992790F9409165
:10295000CC026091CB02822B0C949713893110F03A
:102960009063D7CF8F73880F982BD3CF982F9695DE
:10297000925C9F73963108F791E09093A801DDCFA8
:10298000089580919C02816080939C0281E08093F5
:10299000A9010E94AF22811104C00E9489220E94D5
:1029A00036130E942C136093C9027093CA0280935D
:1029B000CB029093CC026E7761F40E9436130E9492
:1029C0002C136093C9027093CA028093CB02909338
:1029D000CC0281E08093A8018091C90280FF04C0ED
:1029E00086958F730C94811408958091C902869501
:1029F0008F738F5F893108F081E00C94811490917E
:102A0000C902892F8E7F90FF81608093C9026091F7
:102A1000C9027091CA028091CB029091CC020E94AF
:102A200030138091C90280FF04C086958F730C9487
:102A300081141092A8012FEF80E792E0215080408E
:102A40009040E1F700C000000C944913CF93C82FC9
:102A50008091A6019091A7010E946C23EC2FF0E0D9
:102A6000E653FB4EE491E817190609F010F50E94B1
:102A700060239093A7018093A601E091A501F0E067
:102A8000E253FB4E44918091C902881F8827881F1A
:102A90009091CA02292F220F97FB992790F96091F4
:102AA000CB02822B0E944F138091A5018F5F8093F0
:102AB000A501CF910895CF93C82F8091A301909144
:102AC000A4010E946C23EC2FF0E0E953FB4EE4914B
:102AD000E817190609F0E8F40E9460239093A40116
:102AE0008093A3014091CC026091CB028091A1011F
:102AF0009091A2010E944F138091A1019091A20197
:102B0000019668E671E00E940A309093A2018093DA
:102B1000A101CF910895CF93C82F80919F019091EB
:102B2000A0010E946C23EC2FE695F0E0E953FB4EE8
:102B3000E491E817190609F0B8F40E946023909315
:102B4000A00180939F010E94491380919D01909163
:102B50009E01C0FF0BC0019668E671E00E940A303A
:102B600090939E0180939D01CF9108950197F8CF96
:102B7000CF93DF93C82FDFEF80FFD1E080919B01DF
:102B800090919C010E946C23C695EC2FF0E0EC53D1
:102B9000FB4EE491E817190609F088F40E946023BF
:102BA00090939C0180939B010E944913D13061F462
:102BB00080919A01811106C08FEF80939A01DF9175
:102BC000CF9108958150F9CF0E943B30CF93C82F09
:102BD00080919801909199010E946C23EC2FF0E074
:102BE000EF53FB4EE491E817190609F0B0F40E9488
:102BF000602390939901809398010E9449139091CA
:102C0000000180919701913071F48A3F44F489EF7B
:102C1000809397018FEF80930001CF9108958150A9
:102C200080939701FACF87302CF086E0809397014C
:102C300081E0F1CF8F5FF4CF809195019091960163
:102C40000E946C23883E934098F00E9460239093EA
:102C50009601809395018091930190919401019642
:102C60008170992790939401809393010C94491358
:102C700008958091A801882371F18091C9028695F9
:102C80008F739EE3980F9F73943018F482500C94C6
:102C900026159AE3980F9F73933018F486500C947E
:102CA0005B1597E3980F9F73963018F489500C9436
:102CB0008B1591E3980F9F73963018F48F500C94F6
:102CC000B8159BE2980F9F73933018F485510C94BC
:102CD000E6150C941C1608959093AF018093AE01F5
:102CE0000895E091AE01F091AF01309721F001908D
:102CF000F081E02D099480E00895E091AE01F0911B
:102D0000AF01309721F00280F381E02D09940895FE
:102D1000E091AE01F091AF01309721F00480F58190
:102D2000E02D099408952091AC013091AD01281750
:102D3000390771F09093AD018093AC01E091AE0141
:102D4000F091AF01309721F00680F781E02D0994D2
:102D500008952091AA013091AB012817390771F02D
:102D60009093AB018093AA01E091AE01F091AF0185
:102D7000309721F00084F185E02D0994089508959D
:102D80000C94BF160E9457230E9425110E942724ED
:102D90000E9458270C94C1144F925F926F927F92B9
:102DA0008F929F92AF92BF92DF92EF92FF920F931A
:102DB0001F93CF93DF93CDB7DEB72A970FB6F89462
:102DC000DEBF0FBECDBF0E94741121EBE22E21E0C9
:102DD000F22E10E000E0D02E802F0E9476124B01E0
:102DE0005C01F70141905190619071907F0148140E
:102DF00059046A047B0409F476C080919C0281FD29
:102E00000E94811290E080E0482459246A247B24A7
:102E1000B301A201082E04C0769567955795479592
:102E20000A94D2F740FF5AC08E83DF82412C512C86
:102E30003201439404C0440C551C661C771C8A95CF
:102E4000D2F784209520A620B72081E089288A28FF
:102E50008B2809F480E088870E9460238160782FA6
:102E60009A8789874E815F8168858A850E94A0172D
:102E7000000F111F000F111FF801EF54FE4F80814A
:102E80009181A281B38184259525A625B7258083CC
:102E90009183A283B3830E94AA260E947116909107
:102EA000B0018917B9F10E9471168093B0012A967A
:102EB0000FB6F894DEBF0FBECDBFDF91CF911F914B
:102EC0000F91FF90EF90DF90BF90AF909F908F9009
:102ED0007F906F905F904F900C949F0E019687317A
:102EE000910509F095CF0F5F1F4F0730110509F0CD
:102EF00072CF8FEF89838A831B820E946023816057
:102F0000782F9D838C8349815A816B818D810E94AA
:102F1000A017C1CF2A960FB6F894DEBF0FBECDBF63
:102F2000DF91CF911F910F91FF90EF90DF90BF90B5
:102F3000AF909F908F907F906F905F904F9008958B
:102F4000CF93DF93CDB7DEB72B970FB6F894DEBFE4
:102F50000FBECDBF4F83588769877A878B871E82C4
:102F60001D8285E0FE013796DE01119601900D92DB
:102F70008A95E1F749815A816B817C818D819E819F
:102F80002B960FB6F894DEBF0FBECDBFDF91CF9169
:102F90000C943D1E882309F4D8C0823871F40E9435
:102FA000711681FDD2C089E30E9492210E945A22AB
:102FB00089E30E94CF210C945A22833859F40E944D
:102FC000711680FDC2C083E50E9492210E945A22A0
:102FD00083E5EFCF843859F40E94711682FDB5C0A5
:102FE00087E40E9492210E945A2287E4E2CF9CEF5C
:102FF000980F913A18F40E949221DDCF90E2980F39
:10300000983050F4877091E001C0990F8A95EAF7E3
:10301000892F0E941122CFCF9BE5980F933070F437
:10302000853A31F0863A39F083E890E00C949316B3
:1030300081E890E0FBCF82E890E0F8CF98E5980F28
:10304000953108F082C0883A09F440C0893A09F401
:1030500040C08A3A09F440C08B3A09F440C08C3A27
:1030600009F440C08B3B09F440C08C3B09F440C0DC
:103070008D3A09F440C0803B09F440C08E3A09F40F
:1030800040C08F3A09F440C0813B09F440C0823B04
:1030900009F440C0833B09F440C0843B09F440C0BC
:1030A000853B09F440C0863B09F440C0873B09F4E6
:1030B00040C0883B09F440C0893B09F440C08A3BCA
:1030C00009F440C090E080E00C94A91682EE90E0F4
:1030D000FBCF89EE90E0F8CF8AEE90E0F5CF85EB5C
:1030E00090E0F2CF86EB90E0EFCF83EB90E0ECCF77
:1030F00084EB90E0E9CF87EB90E0E6CF8CEC90E0BA
:10310000E3CF8DEC90E0E0CF83E891E0DDCF8AE87B
:1031100091E0DACF82E991E0D7CF84E991E0D4CF92
:1031200081E292E0D1CF83E292E0CECF84E292E0DE
:10313000CBCF85E292E0C8CF86E292E0C5CF87E2AE
:1031400092E0C2CF8AE292E0BFCF0895882309F4CB
:103150004BC0823871F40E94711681FF45C089E32B
:103160000E9492210E945A2289E30E94CF210C944E
:103170005A22833859F40E94711680FF35C083E5C6
:103180000E9492210E945A2283E5EFCF843859F49D
:103190000E94711682FF28C087E40E9492210E943B
:1031A0005A2287E4E2CF9CEF980F913AF0F290E236
:1031B000980F983050F4877091E001C0990F8A956C
:1031C000EAF7892F0E941722D2CF9BE5980F933000
:1031D00020F490E080E00C949316885A853120F416
:1031E00090E080E00C94A9160895882321F00E94B5
:1031F00011220C945A220895882321F00E9417224C
:103200000C945A2208958F929F92AF92BF92DF92B0
:10321000EF92FF920F931F93CF93DF937C01D62FF2
:10322000C72FFC01058102950F70128111110E94B8
:1032300030220E948B21D82E882371F0112321F196
:1032400080E28D0F883000F182E00E9475210E949B
:103250008B2191E0D82ED926EC2FE295EF70F0E08B
:10326000EC5CF64E0C9432304619461996199619B4
:10327000D819F41973197319FF197319971A971A32
:103280000A1B131B7319331BD12CE6CF0C2F0F70A5
:10329000C07F11F00295007F1123A9F0002359F09F
:1032A00080E28D0F883010F0D11109C0802F0E946C
:1032B00011220E945A228D2F0E94CA1714C0802FFB
:1032C0000E942222F6CF8D2F0E94A618002359F0CB
:1032D00080E28D0F883010F0D11124C0802F0E9421
:1032E00017220E945A22DD2009F4C4C10E946821DD
:1032F00080FDC0C1F70112820E9462210E94DC1F82
:10330000C7010E94461B0E946221DF91CF911F914D
:103310000F91FF90EF90DF90BF90AF909F908F90B4
:103320000C94FD1F802F0E942822DBCFFC2FFF7002
:10333000BF2EC07FC03219F0B29480EFB822DD23D7
:1033400069F0D13029F1112369F1002359F0F70117
:10335000858180FFB0CF8F70858304C0112361F019
:10336000011104C08B2D0E94F518BDCF8B2D0130AB
:10337000D1F70E944422B7CF011106C00E94472214
:103380008B2D0E94FC18AFCF013009F4ACCFF6CFE3
:10339000112321F0063008F0A6CFE4CF053008F065
:1033A000A2CFEECF002361F38D2F0E94A6189BCFF2
:1033B0008C2F86958695837069F0813009F093CFC4
:1033C0008D2F9C2F9370111102C090E080E00E941D
:1033D000A91689CF8D2F9C2F9370111102C090E0F8
:1033E00080E00E9493167FCF8D2F112329F00E9439
:1033F000B3250E949F2677CF0E941B26FACF8C2FE1
:10340000837009F047C011116ECF2D2F229526959C
:103410002770220F220F6D2F6F70862E912CB12CEA
:10342000A12C022E04C0880C991CAA1CBB1C0A9457
:10343000D2F760E070E0CB01D4FF0FC06FE070E026
:1034400080E090E004C0660F771F881F991F2A95BF
:10345000D2F76095709580959095C695C695C37086
:10346000C23051F080F4682979298A299B29C1301A
:1034700071F00E94851F37CF682979298A299B29F5
:103480000E94A11F30CF0E94851FC501B4010E9478
:10349000691F29CF8695112311F08C2F8170882305
:1034A00009F421CF2D2F229526952770220F220F68
:1034B0006D2F6F70862E912CB12CA12C022E04C082
:1034C000880C991CAA1CBB1C0A94D2F760E070E01F
:1034D000CB01D4FF0FC06FE070E080E090E004C04B
:1034E000660F771F881F991F2A95D2F760957095F0
:1034F00080959095C695C695C370C23051F080F402
:10350000682979298A299B29C13071F00E945F209E
:10351000EACE682979298A299B290E947B20E3CE5B
:103520000E945F20C501B4010E944320DCCEE0E28E
:10353000ED0FE53108F062C0F0E0EF55F54E0C9468
:103540003230B61AB61AB61AB61AB61AB61AB61A69
:10355000B61AB61AB61AB61AB61AB61AB61AB61AEB
:10356000B61AC31AD11AD81ADF1AE91ADF708C2FCB
:103570008F71112321F00E94DC1F8D2FF4CE0E9449
:10358000FD1F8D2FFECE112341F0053008F0ABCE8C
:103590008C2F8F710E942220A6CE063008F0A3CE79
:1035A000F7CF8C2F8F71112339F00E94DC1F9BCE37
:1035B0008C2F8F711123C9F30E94FD1F94CE11230C
:1035C00029F08C2F8F710E94C71F8DCE0E94BD1FC6
:1035D0008ACE112349F0CF718C2F0E94DC1F63E04B
:1035E0008C2F0E946C217FCE81E00E9475210230D9
:1035F00008F479CE82E00E94752175CE112329F05E
:10360000011159CE8C2F8F71D0CF0111CDCE8C2FBF
:103610008F71D2CF4C2F4F706D2FC7010E94880C35
:103620000E94E61E60CE11115ECECF70C230A9F0AE
:1036300040F4CC2379F0C13009F055CE0E947D27AB
:1036400052CEC33069F0C43009F04DCE8D2F0E94A8
:10365000CC2749CE0E94692746CE0E94962743CEAA
:103660000E94A92740CE4C2F4F706D2FC7010E949A
:10367000A10E39CEDF91CF911F910F91FF90EF9066
:10368000DF90BF90AF909F908F9008950F931F93FE
:10369000CF93DF93EC01988189812B813C81232B8F
:1036A00039F08F3F19F481E09F3F19F080E001C0AD
:1036B00081E080FD17C0CE010E94C80C882391F0E4
:1036C000688179818A810E943E218C010E94972025
:1036D0000E945E1FB801CE01DF91CF911F910F9123
:1036E0000C940319DF91CF911F910F9108950E94BF
:1036F00030220E9441220E9403220E945A220E94EC
:103700004C270E949F2690E080E00E94931690E054
:1037100080E00C94A9160E941F220C94771B0E9433
:103720003421E92FE295EF70E250EE30E0F4F0E062
:10373000E456F44E0C943230AA1BAA1BB31BB31BE5
:10374000B51BB31BB31BB31BAA1BAA1BBA1BB31B12
:10375000B31BBA1B803F19F020F4803E20F481E0B7
:103760000895843FE1F380E00895803EC0F3813FF7
:10377000D1F7F5CF93FB882780F90895CF93DF9396
:1037800000D000D01F92CDB7DEB70F900F900F90F2
:103790000F900F90DF91CF910895CF93DF9300D0DA
:1037A00000D000D0CDB7DEB726960FB6F894DEBFB6
:1037B0000FBECDBFDF91CF9108951F93CF93DF93BD
:1037C000C091CE0116E08091CF018C1304C0DF912F
:1037D000CF911F910895D0E01C9FF0011D9FF00D27
:1037E0001124E053FE4F40815181628173818481B5
:1037F00095810E94CD1B2196C770E5CF40910002B4
:1038000050910102609102027091030280910402C2
:10381000909105020C94CD1B1F93CF93DF93809161
:103820000502807FD1F4809102028823B1F080915B
:10383000CE01D091CF01B0910002C0910102409120
:10384000030250910402A1E0BF3F09F0A0E0BA01D9
:103850006095709516E0D81304C0DF91CF911F9149
:10386000089521E04115510521F02A2FCF3F09F09D
:1038700020E090E020FD38C0189FF001199FF00D66
:103880001124E053FE4F21812C132EC020812B13D5
:103890002BC02281211128C02381348124173507B0
:1038A00000F1241B350B283C3105F0F42091050272
:1038B0002F7020612093050226E0289FF001299FA8
:1038C000F00D1124EB52FE4F80818F708061808358
:1038D00080E092E00E94461BDF91CF911F910C94F3
:1038E000DD1B260F371FDFCF01968770B4CFAF9255
:1038F000BF92CF92DF92EF92FF920F931F93CF93DD
:10390000DF93CDB7DEB761970FB6F894DEBF0FBE79
:10391000CDBF8C0185E0F801DE011D9601900D926E
:103920008A95E1F7D8014C9111965C911197129606
:10393000EC9030910002609101028091030290911D
:10394000040221E0009731F06F3F19F421E03F3F7E
:1039500009F020E0B22FB170BB2E20FD80C1F8012C
:10396000C380D480A0900202AA2009F427C1C816FF
:10397000D906D0F1D601A81BB90BCD01FF24F394D1
:10398000883C910508F0F12C80910502982F907FDA
:10399000FF2009F4CAC0911187C0FE2C651329C00D
:1039A000341327C0E11025C08F7080618093050219
:1039B0000E94FE1B80E092E00E94461B809105025F
:1039C000F80185838F2D61960FB6F894DEBF0FBE88
:1039D000CDBFDF91CF911F910F91FF90EF90DF90BE
:1039E000CF90BF90AF900895809590958C0D9D1DC0
:1039F000C5CF81E0CD2831F05F3F19F481E04F3F22
:103A000009F080E080FD24C081E08E25F82FF17060
:103A1000DF2E80FF3FC08091CE012091CF0136E0A4
:103A2000821318C04D875E878D859E850E94342144
:103A3000292F22952F70223008F1243030F59F7005
:103A400009F1D80115969C91907FE1F4FB2CBACF37
:103A500080E0DCCF90E0389FF001399FF00D112419
:103A6000E053FE4F6181561306C06081461303C0C8
:103A700062816E110FC001968770D2CF9F7011F0D6
:103A8000882321F3805E883008F3C8010E94461B1A
:103A9000BD2CDCCFEE2009F495CF8091050281602A
:103AA00080930502F12C8ECF651312C0341310C021
:103AB000E1100EC0F8018583C8010E94461B86E014
:103AC000F801A0E0B2E001900D928A95E1F741C0C3
:103AD0004D875E878D859E850E948F1B882309F404
:103AE000C8C0EE2009F4C5C080910502803270F094
:103AF000209100023091010238872F831986DB86DE
:103B0000CA868C87CE0107960E94461B86E0F80184
:103B1000A0E0B2E001900D928A95E1F70E940C1CA2
:103B20000E94FE1BFF24F3944DCF911115C07C2DF4
:103B3000D98AC88A6E2D89890E94BE1B80E092E0D6
:103B40000E94461B86E0E0E0F2E0DF011D928A95CC
:103B5000E9F70E94FE1B36CF651312C0341310C064
:103B6000E1100EC0F8018583C8010E94461BE0E009
:103B7000F2E086E0DF011D928A95E9F7FA2C22CF68
:103B80004D875E878D859E850E948F1B882309F453
:103B900070C0EE2009F46DC080910502803208F4F7
:103BA000B5CF20910002309101023A8329831B8214
:103BB000DD82CC828E83CE010196A6CFC816D906AF
:103BC00038F1F601E81BF90BCF01F12C883C910587
:103BD00008F03DC0FE2CEE2009F44BC0651326C052
:103BE000341324C08091050280FD17C0982F907F68
:103BF000A1F0D80115968C931597903F09F45CCFEE
:103C0000982F907F905F8F70892B15968C9354CF4F
:103C1000809590958C0D9D1DD8CF86E0F801A0E091
:103C2000B2E001900D928A95E1F7CCCE4D875E8788
:103C30008D859E850E948F1B811168CF8091050222
:103C4000816080930502C8010E94461BBBCE7C2D7B
:103C5000D98AC88A6E2D89890E94BE1B73CFEE2037
:103C600041F04D875E878D859E850E948F1B811157
:103C70004DCFC8010E94461B55CF1F93CF93DF93B2
:103C8000CDB7DEB72C970FB6F894DEBF0FBECDBF11
:103C90004F83588769877A878B879C87CE010796E1
:103CA0000E94771C882309F442C09F8188852A8559
:103CB0003B85232B39F08F3F19F481E09F3F19F0AA
:103CC00080E001C081E080FD08C04F815885698592
:103CD0007A858B859C850E94CD1B16E08091CE0154
:103CE0009091CF01891709F467C0819FC001112409
:103CF00080539E4F0E94771C882309F45DC0E09199
:103D0000CE011E9FF0011124E053FE4F40815181EE
:103D100062817381848195810E94CD1B8091CE0147
:103D200090E00196877099278093CE01D7CF86E0E7
:103D3000FE013796DE01119601900D928A95E1F70A
:103D40009F8188852A853B85232B39F08F3F19F485
:103D500081E09F3F19F080E001C081E080FDBDCF90
:103D60002091CF0130E0C9010196877099274091D9
:103D7000CE014817190699F096E0929FD001939FC3
:103D8000B00D1124A053BE4FFE01319601900D924B
:103D90009A95E1F78093CF010E94DD1B9ECF0E9490
:103DA0008B1B1092CF011092CE0186E0E0E0F2E092
:103DB000DF011D928A95E9F72C960FB6F894DEBFC5
:103DC0000FBECDBFDF91CF911F910895EF92FF926B
:103DD0000F931F93CF93DF938C01892B81F0F12CEC
:103DE000EE24E394E8012196F8018491843770F47D
:103DF000843008F05FC08130B1F08230A1F1DF91F2
:103E0000CF911F910F91FF90EF900895853709F49E
:103E10004CC008F43DC09CE7980F903780F78F772F
:103E20000E94A61849C00E5F1F4FFE01849190E2C8
:103E3000980F983060F48770FE2D01C0FF0F8A95AF
:103E4000EAF78F2F0E9433220E945A2202C00E945A
:103E5000CA178F2D815030F2EFE9FFE03197F1F76B
:103E600000C00000F7CF0E5F1F4FFE01849190E26B
:103E7000980F983050F48770FE2D01C0FF0F8A957F
:103E8000EAF78F2F0E943922DFCF0E94A618E1CFD8
:103E90000E5F1F4FFE01C491C150D8F28FE99FE021
:103EA0000197F1F700C00000F7CF0E5F1F4FFE0132
:103EB000F490CFCF0E94CA178E01CBCF08956093A4
:103EC00073027093740280937502909376020C943F
:103ED000771B0F931F93009173021091740220912E
:103EE000750230917602DC01CB01802B912BA22B45
:103EF000B32B8093730290937402A0937502B093D6
:103F000076021F910F910C94771B0F931F930091D2
:103F10007302109174022091750230917602DC01D7
:103F2000CB0180239123A223B32380937302909328
:103F30007402A0937502B09376021F910F910C94B6
:103F4000771B0F931F9300917302109174022091BD
:103F5000750230917602DC01CB0180279127A227E0
:103F6000B3278093730290937402A0937502B09369
:103F700076021F910F910C94771B10926F02109292
:103F8000700210927102109272020C94771B41E041
:103F900050E060E070E004C0440F551F661F771FBB
:103FA0008A95D2F740936F0250937002609371022A
:103FB000709372020C94771B41E050E060E070E077
:103FC00004C0440F551F661F771F8A95D2F7809152
:103FD0006F0290917002A0917102B0917202842BD5
:103FE000952BA62BB72B80936F0290937002A09312
:103FF0007102B09372020C94771B41E050E060E0D4
:1040000070E004C0440F551F661F771F8A95D2F7D2
:10401000409550956095709580916F0290917002D7
:10402000A0917102B091720284239523A623B72335
:1040300080936F0290937002A0937102B09372020A
:104040000C94771B41E050E060E070E004C0440F46
:10405000551F661F771F8A95D2F780916F02909146
:104060007002A0917102B091720284279527A62751
:10407000B72780936F0290937002A0937102B09360
:1040800072020C94771B0F931F9300916F02109193
:1040900070022091710230917202DC01CB01802B01
:1040A000912BA22BB32B80936F0290937002A0935D
:1040B0007102B09372021F910F910C94771B0F93B2
:1040C0001F9300916F021091700220917102309144
:1040D0007202DC01CB0180239123A223B3238093BE
:1040E0006F0290937002A0937102B09372021F91BD
:1040F0000F910C94771B0F931F9300916F021091F7
:1041000070022091710230917202DC01CB01802794
:104110009127A227B32780936F0290937002A093F8
:104120007102B09372021F910F910C94771B089546
:1041300027E1929F800D1124982F977071E001C0A4
:10414000770F9A95EAF786958695869525E0829F62
:10415000C001112450E040E0A62FB0E0FC01E40FC4
:10416000F51FEA5FFD4F60819D01042E02C0369568
:1041700027950A94E2F721702195262727232627E1
:1041800020834F5F5F4F4530510541F7089527E188
:10419000929F800D1124982F97708695869586950D
:1041A00025E0829FA001112470E060E080E0FA0128
:1041B000E60FF71FEA5FFD4F208130E0092E02C0B5
:1041C000369527950A94E2F721703327062E01C011
:1041D000220F0A94EAF7822B6F5F7F4F65307105DB
:1041E00031F70895BF92CF92DF92EF92FF920F9333
:1041F0001F93CF93DF938C01C0906F02D090700219
:10420000E0907102F09072028091730290917402BA
:10421000A0917502B0917602C82AD92AEA2AFB2A0F
:10422000CFE1D0E0BC2ED701C6010C2E04C0B6955C
:10423000A795979587950A94D2F780FD0EC0219790
:1042400088F7B12C8B2DDF91CF911F910F91FF90AB
:10425000EF90DF90CF90BF900895B8018C2F0E940F
:10426000BE0E019761F3EECFCF93DF93EC010E9476
:10427000F220BE01DF91CF910C94BE0E1F93CF931D
:10428000DF93EB019091CD01992331F0CB01DF91C8
:10429000CF911F910C943421882379F0CB010E9497
:1042A000F220182F682FCE010E949820BE01812F86
:1042B000DF91CF911F910C94BE0ECB010E94C720BD
:1042C000182FF4CF8091770285958595859508956F
:1042D000809177028770089598E0899F900111245A
:1042E000622B609377020C94DC1F9091770280958B
:1042F000892380937702282F277061F4282F082EB6
:10430000000C330B9217130629F08595859585953A
:104310000C94FD1F089590917702977081E009F445
:1043200080E00895909113019923E1F09091D502D6
:1043300097FF18C0E82FE695E695E695EF3139F13D
:104340002091010130910201E20FF32FF11D8770DE
:1043500021E030E001C0220F8A95EAF78181822BAB
:10436000818308952091010130910201F901329673
:104370009FEF40E05191851751F09F3F19F4511183
:1043800001C0942F4F5F4E31A9F79F3F09F4089564
:10439000290F311D97FD3A95F90182830895909177
:1043A00013019923F1F09091D50297FF1AC0E82FDD
:1043B000E695E695E695EF3129F1209101013091DE
:1043C0000201E20FF32FF11D282F277081E090E00A
:1043D00001C0880F2A95EAF780959181892381830E
:1043E00008952091010130910201F9013296205E79
:1043F0003F4F9191891303C0DF0111971C92E2177F
:10440000F307B9F7089581E090E0E0910101F091A0
:104410000201E80FF91F1082019680329105A9F779
:10442000089590919B02892B80939B020895982F69
:10443000909580919B02892380939B02089510920E
:104440009B02089590919A02892B80939A02089575
:10445000982F909580919A02892380939A020895CB
:1044600010929A02089590919902892B8093990253
:104470000895982F909580919902892380939902AD
:1044800008951092990208958093780208951092E9
:10449000780208952091010130910201F9013196CD
:1044A000205E3F4F80E0919191118F5FE217F307FB
:1044B000D1F70895E0910101F091020180919B02F2
:1044C0008083E0910101F0910201808190919A0234
:1044D000892B8083E0910101F0910201808190910C
:1044E0009902892B808390917802992361F0E09161
:1044F0000101F09102018081892B80830E944A2270
:1045000081111092780280910101909102010C9426
:104510007D166DEE7EEF90E080E00E94723060E0EC
:1045200082E090E00E94543060E083E090E00E94DE
:10453000543060E084E090E00E94543060E085E018
:1045400090E00E94543060E086E090E00E94543099
:1045500040E050E0BA0188E090E00C94663090E0D2
:1045600080E00E944E3021E08D3E9E4F09F020E019
:10457000822F089582E090E00C944030682F82E012
:1045800090E00C94543083E090E00C944030682F1D
:1045900083E090E00C94543084E090E00C94403040
:1045A000682F84E090E00C94543086E090E00C9406
:1045B0004030682F86E090E00C9454308091DC020B
:1045C000843051F110929D0288E190E020E40FB612
:1045D000F894A895809360000FBE2093600080E05F
:1045E0000E94710E80E00E949F0E83B7817F8460DD
:1045F00083BF83B7816083BF7894889583B78E7FAC
:1046000083BF0FB6F894A89580916000886180936D
:104610006000109260000FBE089508950895CF9332
:104620000E940D230E9474110E940E23C0E08C2F63
:104630000E947612672B682B692B31F4CF5FC7304D
:10464000B1F780E0CF91089581E0FCCF0E948B1BF1
:104650000E9458270E9471160C949F0E1F920F9271
:104660000FB60F9211248F939F93AF93BF938091B6
:104670009D02811113C08091D1029091D202A0912C
:10468000D302B091D4024196A11DB11D8093D102F5
:104690009093D202A093D302B093D402BF91AF9172
:1046A0009F918F910F900FBE0F901F90189582E0F1
:1046B00084BD93E095BD9AEF97BD80936E000895F9
:1046C0002FB7F8948091D1029091D202A091D30299
:1046D000B091D4022FBF0895CF92DF92EF92FF9254
:1046E0000F931F932FB7F8944091D1025091D202AB
:1046F0006091D3027091D4022FBF6A017B01EE2436
:10470000FF248C0130E020E0C016D106E206F3065B
:1047100050F0481B590BCA011F910F91FF90EF9069
:10472000DF90CF90089541505109F3CF1F920F921F
:104730000FB60F9211248F939F93AF93BF938091E5
:10474000D1029091D202A091D302B091D4020196ED
:10475000A11DB11D8093D1029093D202A093D302E8
:10476000B093D402BF91AF919F918F910F900FBEE4
:104770000F901F9018950E94D32BF8942FEF87EA83
:1047800091E6215080409040E1F700C0000087E0B2
:1047900090EBDC018093E5029093E602A093E702A0
:1047A000B093E80288E19CE00FB6F894A895809356
:1047B00060000FBE90936000FFCF8F929F92AF92E8
:1047C000BF92EF92FF920F931F93CF93C0E0E82E1A
:1047D000F12C8C2F0E9476124B015C0110E000E05E
:1047E000D501C401002E04C0B695A795979587956D
:1047F0000A94D2F780FD13C00F5F1F4F07311105D8
:1048000079F7CF5FC73029F780E0CF911F910F91E3
:10481000FF90EF90BF90AF909F908F900895602F82
:104820007C2F80E00E94A20EE816F90629F781E0AD
:10483000ECCFCF93C82F8CE20E94DD23882321F098
:104840008C2FCF910C94DD2380E0CF910895CF93EE
:104850000E94AF22811102C00E948922C5E608C0D1
:104860000E9474118FE39CE90197F1F700C00000EA
:10487000C150B1F789E20E9419248111EFC08AE288
:104880000E94192481110E94892285E00E94192426
:1048900081110E94BB230E94BA2280939C0287E070
:1048A0000E941924882371F08BE10E941924882327
:1048B00009F4B1C090919C02892F8D7F91FF826095
:1048C00080939C0280919C020E94BE220E94CC2276
:1048D00090E09093D6028093D50280EE0E94192436
:1048E000882341F09091D502892F8E7F90FF8160BF
:1048F0008093D50289E30E941924882341F0909186
:10490000D502892F8D7F91FF82608093D50282EE40
:104910000E941924882341F09091D502892F8B7F22
:1049200092FF84608093D50286EE0E94192488232A
:1049300041F09091D502892F877F93FF8860809303
:10494000D50283EE0E941924882341F09091D5026C
:10495000892F8F7E94FF80618093D50285E30E942A
:104960001924882341F09091D502892F8F7D95FFDE
:1049700080628093D50281E30E941924882341F04C
:104980009091D502892F8F7B96FF80648093D5020A
:1049900081E10E941924882341F09091D502892F4A
:1049A00097FB87F980588093D5028091D5020E94A9
:1049B000D02287E20E941924C82F8EE10E94192478
:1049C0008111C2608FE10E9419248111C46080E2CC
:1049D0000E9419248111C86081E20E94192481116A
:1049E000C06182E20E9419248111C06283E20E94A8
:1049F00019248111C06484E20E941924882341F1A2
:104A0000C0688C2F0E94C7226C2F70E090E080E07D
:104A1000CF910C945F1F8EE00E941924882339F0F7
:104A200090919C02892F8B7F92FF846049CF80E117
:104A30000E94192490919C02882329F0892F877F56
:104A400093FF88603DCF892F8E7F90FF816038CFA4
:104A5000C111D7CF0E94C322682FD7CFCF9108951D
:104A60008091A00280FF12C06091060185E0689FDE
:104A7000B001112475956795759567956038710536
:104A8000A8F561157105A1F1862F089581FF09C070
:104A90006091060185E0689FB001112475956795C6
:104AA000EDCF82FF07C06091060185E0689FB001ED
:104AB0001124E4CF2091A1022223A9F090910501B5
:104AC0006091060185E0689FB00111242917B0F6B6
:104AD000269FA001279F500D1124692F70E0CA0165
:104AE0000E941E30CBCF65E070E0CECF8FE70895F7
:104AF00081E008958091A00280FF0CC060910401C4
:104B000070E075956795759567956115710549F123
:104B1000862F089581FF06C06091040170E07595AD
:104B20006795F3CF6091040182FD0BC09091A102C3
:104B30009923A1F06091030180910401961738F048
:104B4000682F70E06038710500F38FE70895899F42
:104B5000C001112470E00E941E30F4CF61E070E0CB
:104B6000D7CF81E00895803F31F40E9430258195B0
:104B70008093A4020895813F19F40E943025F8CF54
:104B8000823F31F40E94302581958093A3020895DD
:104B9000833F19F40E943025F8CF893F29F40E9401
:104BA0007A258093A50208958A3F21F40E947A25F0
:104BB0008195F7CF8B3F31F40E947A2581958093C0
:104BC000A60208958C3F19F40E947A25F8CF843FFD
:104BD00031F48091A20281608093A2020895853F02
:104BE00021F48091A2028260F7CF863F21F4809168
:104BF000A2028460F1CF873F21F48091A2028860F5
:104C0000EBCF883F21F48091A2028061E5CF8D3FF8
:104C100031F48091A00281608093A00208958E3FBC
:104C200021F48091A0028260F7CF8F3FB9F7809185
:104C3000A0028460F1CF803FC1F48091A40287FD7F
:104C40001092A4028091A30281110EC08091A4024F
:104C500081110AC08091A502811106C08091A6022F
:104C6000811102C01092A1020895813F29F4809120
:104C7000A40218162CF3E6CF9091A302823F29F4E8
:104C800097FFE0CF1092A302DDCF833F19F41916EE
:104C9000CCF3D8CF893F39F48091A502181694F649
:104CA0001092A502CFCF8A3F29F48091A50287FFF9
:104CB000C9CFF6CF8B3F39F48091A60287FFC2CFD0
:104CC0001092A602BFCF8C3F29F48091A60218163D
:104CD000BCF3B8CF843F31F48091A2028E7F8093E1
:104CE000A202B0CF853F21F48091A2028D7FF7CF41
:104CF000863F21F48091A2028B7FF1CF873F21F480
:104D00008091A202877FEBCF883F21F48091A2029D
:104D10008F7EE5CF8D3F31F48091A0028E7F80930E
:104D2000A00290CF8E3F21F48091A0028D7FF7CF1B
:104D30008F3F09F087CF8091A0028B7FF0CF82EA6E
:104D400092E00E9488160E94602390939F028093B5
:104D50009E0208951F93CF93DF9380919E029091BE
:104D60009F020E946C23AC019091A1022091070147
:104D700030E0911106C0209108018AE0289F90013F
:104D800011244217530780F08091A302C091A4021E
:104D90001091A502D091A60281110AC0C11178C05C
:104DA000111176C0D11174C0DF91CF911F91089578
:104DB0009F3F19F09F5F9093A102181624F40E9460
:104DC00030258093A3028091A30287FF05C00E9433
:104DD000302581958093A3021C1624F40E9430256F
:104DE0008093A4028091A40287FF05C00E94302511
:104DF00081958093A4026091A302662331F1C09152
:104E0000A402CC2311F1062E000C770B880B990B12
:104E10000E94112F23E333E343E35FE30E94752FE6
:104E20000E94D92E6093A3026C2FCC0F770B880BB6
:104E3000990B0E94112F23E333E343E35FE30E94C6
:104E4000752F0E94D92E6093A402111624F40E949B
:104E50007A258093A5028091A50287FF05C00E9454
:104E60007A2581958093A5021D1624F40E947A2547
:104E70008093A6028091A60287FF05C00E947A2532
:104E800081958093A602DF91CF911F910C949F266C
:104E90009F3F09F08FCFA0CF85E0E2EAF2E0DF018B
:104EA0001D928A95E9F71092A1021092A00208952E
:104EB0000E94AF22811102C00E9489220E94D52245
:104EC0008093D70280FF03C086950C94710E80E01A
:104ED000FCCF8091D702982F9E7F19F48E5F80932C
:104EE000D7028091D70281608093D7020E94D92295
:104EF0008091D70286950C94710E8091D702982FDD
:104F00009E7F79F082508093D7028E7F91E009F4E2
:104F100090E08091D70290FB80F98093D7020E94A5
:104F2000D9228091D70286950C94710E9091D70268
:104F3000892F8E7F90FF81608093D7020E94D922B3
:104F40008091D70280FF03C086950C94710E80E09B
:104F5000FCCF9091D702892F86958F5F8F779170C4
:104F60008230B8F4880F892B8093D7028091D702C2
:104F70008E7F91E009F490E08091D70290FB80F958
:104F80008093D7020E94D9228091D70286950C94F3
:104F9000710E9093D702EACF9091D702292F2695D0
:104FA0008227880F9170982B9093D7029E7F21E0E3
:104FB00009F420E08091D70220FB80F98093D7028A
:104FC0000E94D9228091D70286950C94710E80910F
:104FD000C7020895CF93DF9300D01F92CDB7DEB7FD
:104FE0009C018091DC02843019F593E099833B8326
:104FF0002A839093E9008FEF9091E800815095FD0E
:1050000006C095ED9A95F1F700008111F5CF8091DA
:10501000E80085FF0DC050E040E063E070E0CE01A5
:1050200001960E94472A8091E8008E778093E800DD
:105030000F900F900F90DF91CF910895CF93DF9352
:1050400000D01F92CDB7DEB72091DC02243031F5BD
:1050500022E02983805891099B838A8383E080938F
:10506000E9008FEF9091E800815095FD06C095ED25
:105070009A95F1F700008111F5CF8091E80085FF46
:105080000DC050E040E063E070E0CE0101960E9468
:10509000472A8091E8008E778093E8000F900F9068
:1050A0000F90DF91CF9108959C018091DC028430B4
:1050B000F9F482E08093E9009FEF8091E80091503D
:1050C00085FD06C085ED8A95F1F700009111F5CFB9
:1050D0008091E80085FF0CC050E040E065E070E0A2
:1050E000C9010E94472A8091E8008E778093E800EA
:1050F0000895CF93DF93EC018091DC028430F1F4CA
:10510000909113019923E9F09091D50297FF19C06E
:105110008093E9008FEF9091E800815095FD06C0E3
:1051200095E19A95F1F700008111F5CF8091E800A3
:1051300050E040E060E270E085FD1AC0DF91CF9161
:10514000089581E08093E9008FEF9091E80081500D
:1051500095FD06C095ED9A95F1F700008111F5CF08
:105160008091E80085FFEACF50E040E068E070E021
:10517000CE010E94472A8091E8008E778093E80054
:1051800080E2FE01A7EAB2E001900D928A95E1F774
:10519000D5CF8091DB02811109C00E94D32B0E94E0
:1051A000352C8091E20084608093E2000895109293
:1051B000DB020895089508950C94262342E061ECE3
:1051C00081E00E94512B42E061EC82E00E94512B71
:1051D00042E061EC83E00E94512B42E261EC84E00A
:1051E0000C94512B8091DE02833009F455C030F4C9
:1051F000813071F1823009F491C008958A3009F448
:105200007DC08B3009F463C0893009F044C08091BF
:10521000DD02813209F03FC08091E1029091E2020B
:10522000009711F00397B9F58091E800877F80938C
:10523000E8008091E80082FF2AC08091F10080930D
:10524000C7028091E8008B778093E8000C94852B4F
:105250008091DD02813AF9F48091E800877F8093A4
:10526000E8008091E1029091E202892B61F460E212
:1052700087EA92E070E00E94962A8091E8008B779E
:105280008093E800089560E090E080E0F3CF8091A3
:10529000DC028111CECF08958091DD02813AD9F7E9
:1052A0008091E1029091E202892BA9F78091E800B8
:1052B000877F8093E8008091E80080FFFCCF809199
:1052C00013018093F1008091E8008E77BDCF80912B
:1052D000DD02813201F78091E1029091E202892B97
:1052E000D1F68091E800877F8093E8000E94852BAB
:1052F0008091DF02809313010C948B1B8091DD025F
:10530000813249F68091E800877F8093E8000E940F
:10531000852B8091E0028093C80208958091DD0280
:10532000813A09F0B8CF8091E800877F8093E80048
:105330008091E80080FFFCCF8091C802C2CF84B783
:10534000877F84BF0FB6F894A8958091600088612C
:1053500080936000109260000FBE80E8809361002F
:10536000109261000E94C0160E94D32B0E94352C1F
:105370008091E20084608093E20078940E94BD2EC8
:105380000E94C21689E091E00E946C168091DC02B6
:10539000853029F00E94CC160E943916F7CF0E9462
:1053A000DE228091DA02882389F30E940F2388236A
:1053B00069F30E94312AEACF292F332723303105A0
:1053C00079F158F421303105F1F02230310519F12D
:1053D00090E080E030E020E01AC02132310599F100
:1053E00022323105A9F7643098F770E0FB01EE0F27
:1053F000FF1FEA5CFE4F208131816E5C7E4FFB0116
:10540000808190E004C082E190E02BE637E1FA0170
:105410003183208308958DE690E02EEF36E1F7CFBB
:1054200099278130910561F028F0029789F6EEEC1A
:10543000F6E102C0EAEFF6E1849190E09F01E7CF48
:10544000E2EEF6E1F9CF643008F0C2CFE62FF0E0EB
:10545000EE0FFF1FE25CFE4F2081318189E090E07A
:10546000D6CF84E189BD86E189BD09B400FEFDCFB8
:105470008091D8008F7D8093D8008091E000826079
:105480008093E0008091E00081FDFCCF0895AF9211
:10549000BF92CF92DF92FF920F931F93CF93DF9330
:1054A0006C01EB018A010E94A42BF82E811123C00C
:1054B0000115110539F0F80180819181C81BD90BC4
:1054C000C80ED91EB12CA12C2097A9F08091E8001C
:1054D00085FD22C08091E8008E778093E800011559
:1054E0001105A1F0F80180819181A80EB91EB18249
:1054F000A08285E0F82E8F2DDF91CF911F910F9123
:10550000FF90DF90CF90BF90AF9008950E94A42BA2
:105510008823D1F2F82EEFCFF60181916F018093AD
:10552000F1002197FFEFAF1ABF0ACECFFC018091A7
:10553000E3029091E40286179707A0F061157105C8
:1055400029F49091E8009E779093E80090E061152F
:10555000710551F4911108C08091E80082FF33C0B9
:1055600080E00895BC01F2CF8091DC028823B9F17C
:105570008530B9F18091E80083FD2FC08091E8006B
:1055800082FDEACF8091E80080FFE1CF2091F20018
:105590003091F3006115710519F02830310558F08C
:1055A00091E02830310509F090E02091E8002E7755
:1055B0002093E800CCCF81918093F1006150710974
:1055C0002F5F3F4FE7CF8091DC02882341F0853089
:1055D00041F08091E80083FFBFCF81E0089582E031
:1055E000089583E00895FC018091E3029091E40224
:1055F00086179707A0F06115710529F48091E800DE
:105600008E778093E80090E06115710551F4911157
:1056100008C08091E80082FF34C080E00895BC019A
:10562000F2CF8091DC028823C1F18530C1F18091F5
:10563000E80083FD30C08091E80082FDEACF8091D0
:10564000E80080FFE1CF2091F2003091F300611576
:10565000710519F02830310558F091E028303105F6
:1056600009F090E08091E8008E778093E800CCCF3D
:1056700084918093F1003196615071092F5F3F4F03
:10568000E6CF8091DC02882341F0853041F08091A3
:10569000E80083FFBECF81E0089582E0089583E0B3
:1056A0000895982F973028F08F708093E90081E05B
:1056B00008959093E900242F762F50E0981731F049
:1056C0007091EC002091ED005091F00021FD02C09E
:1056D0009F5FE8CF3091EB003E7F3093EB0030913D
:1056E000ED003D7F3093ED003091EB003160309361
:1056F000EB007093EC002093ED005093F0002091AC
:10570000EE0027FDE5CF80E008958091DD0287FF60
:1057100013C08091E80082FF06C08091E8008B777B
:105720008093E80004C08091DC028111F2CF0895DB
:105730008091DC028823D9F38091E80080FFF8CFC4
:105740008091E8008E77ECCF2091E4003091E50065
:1057500085E69091EC0090FF06C09091E80090FFE4
:1057600006C080E008959091E80092FDFACF9091F4
:10577000DC02992391F0953091F09091EB0095FD2A
:1057800010C04091E4005091E5002417350709F35B
:1057900081509A01F1F684E0089582E0089583E053
:1057A000089581E008950E94442C0E944C2CE0EE64
:1057B000F0E0808181608083E8EDF0E080818F7788
:1057C000808319BCA7EDB0E08C918E7F8C93808193
:1057D0008F7E80831092DB0208950F931F93CF93E7
:1057E000DF930E94442C0E944C2CC8EDD0E08881AD
:1057F0008F77888388818068888388818F7D88837C
:10580000E7EDF0E080818068808319BC1092DC02B3
:105810001092D8021092DA021092D90200EE10E033
:10582000F80180818B7F808388818160888342E05A
:1058300060E080E00E94512BE1EEF0E080818E7FFD
:105840008083E2EEF0E080818160808380818860E7
:105850008083F80180818E7F808388818061888346
:10586000DF91CF911F910F910895E8EDF0E08081D5
:105870008F7E8083E7EDF0E080818160808381E02E
:105880008093DB020C94ED2BE8EDF0E080818C7FBF
:1058900080831092E20008951092DA001092E100E5
:1058A00008951F920F920FB60F9211240BB60F920C
:1058B0002F933F934F935F936F937F938F939F9318
:1058C000AF93BF93EF93FF938091E10082FF0BC0F2
:1058D0008091E20082FF07C08091E1008B7F80937E
:1058E000E1000E94BC2E8091DA0080FF19C08091F7
:1058F000D80080FF15C08091DA008E7F8093DA0097
:105900008091D90080FF96C084E189BD86E189BD80
:1059100009B400FEFDCF81E08093DC020E94C9281B
:105920008091E10080FF19C08091E20080FF15C0E6
:105930008091E2008E7F8093E2008091E20080619E
:105940008093E2008091D80080628093D80019BCD7
:1059500085E08093DC020E94DB288091E10084FFD7
:1059600029C08091E20084FF25C084E189BD86E1E1
:1059700089BD09B400FEFDCF8091D8008F7D809352
:10598000D8008091E1008F7E8093E1008091E20059
:105990008F7E8093E2008091E20081608093E2003C
:1059A0008091D802882309F44BC084E08093DC0204
:1059B0000E94DC288091E10083FF29C08091E200F1
:1059C00083FF25C08091E100877F8093E10082E022
:1059D0008093DC021092D8028091E1008E7F809348
:1059E000E1008091E2008E7F8093E2008091E200EE
:1059F00080618093E20042E060E080E00E94512BF1
:105A00008091F00088608093F0000E94DA28FF9176
:105A1000EF91BF91AF919F918F917F916F915F9126
:105A20004F913F912F910F900BBE0F900FBE0F9093
:105A30001F90189519BC1092DC020E94D72870CFD5
:105A40008091E30087FD02C081E0B0CF83E0AECF5C
:105A50001F920F920FB60F9211240BB60F922F9335
:105A60003F934F935F936F937F938F939F93AF93E6
:105A7000BF93CF93EF93FF93C091E900CF708091D4
:105A8000EC001092E9008091F000877F8093F00095
:105A900078940E94682D1092E9008091F00088604F
:105AA0008093F000C093E900FF91EF91CF91BF91F7
:105AB000AF919F918F917F916F915F914F913F91A6
:105AC0002F910F900BBE0F900FBE0F901F90189547
:105AD0001F93CF93DF93CDB7DEB7AA970FB6F89495
